{
  "address": "0x8916d222aDff8f7BC8e122532f0CDf64dEBca9a9",
  "abi": [
    {
      "inputs": [],
      "stateMutability": "nonpayable",
      "type": "constructor"
    },
    {
      "inputs": [
        {
          "internalType": "address",
          "name": "owner",
          "type": "address"
        }
      ],
      "name": "OwnableInvalidOwner",
      "type": "error"
    },
    {
      "inputs": [
        {
          "internalType": "address",
          "name": "account",
          "type": "address"
        }
      ],
      "name": "OwnableUnauthorizedAccount",
      "type": "error"
    },
    {
      "inputs": [],
      "name": "ReentrancyGuardReentrantCall",
      "type": "error"
    },
    {
      "anonymous": false,
      "inputs": [
        {
          "indexed": true,
          "internalType": "uint256",
          "name": "auctionId",
          "type": "uint256"
        },
        {
          "indexed": true,
          "internalType": "address",
          "name": "nftContract",
          "type": "address"
        },
        {
          "indexed": true,
          "internalType": "uint256",
          "name": "tokenId",
          "type": "uint256"
        },
        {
          "indexed": false,
          "internalType": "address",
          "name": "seller",
          "type": "address"
        },
        {
          "indexed": false,
          "internalType": "uint256",
          "name": "minBid",
          "type": "uint256"
        },
        {
          "indexed": false,
          "internalType": "uint256",
          "name": "commitEnd",
          "type": "uint256"
        },
        {
          "indexed": false,
          "internalType": "uint256",
          "name": "revealEnd",
          "type": "uint256"
        }
      ],
      "name": "BlindAuctionCreated",
      "type": "event"
    },
    {
      "anonymous": false,
      "inputs": [
        {
          "indexed": true,
          "internalType": "uint256",
          "name": "auctionId",
          "type": "uint256"
        },
        {
          "indexed": false,
          "internalType": "address",
          "name": "winner",
          "type": "address"
        },
        {
          "indexed": false,
          "internalType": "uint256",
          "name": "amount",
          "type": "uint256"
        }
      ],
      "name": "BlindAuctionFinalized",
      "type": "event"
    },
    {
      "anonymous": false,
      "inputs": [
        {
          "indexed": true,
          "internalType": "uint256",
          "name": "auctionId",
          "type": "uint256"
        },
        {
          "indexed": true,
          "internalType": "address",
          "name": "bidder",
          "type": "address"
        },
        {
          "indexed": false,
          "internalType": "bytes32",
          "name": "commitment",
          "type": "bytes32"
        }
      ],
      "name": "BlindBidCommitted",
      "type": "event"
    },
    {
      "anonymous": false,
      "inputs": [
        {
          "indexed": true,
          "internalType": "uint256",
          "name": "auctionId",
          "type": "uint256"
        },
        {
          "indexed": true,
          "internalType": "address",
          "name": "bidder",
          "type": "address"
        },
        {
          "indexed": false,
          "internalType": "uint256",
          "name": "amount",
          "type": "uint256"
        }
      ],
      "name": "BlindBidRevealed",
      "type": "event"
    },
    {
      "anonymous": false,
      "inputs": [
        {
          "indexed": true,
          "internalType": "uint256",
          "name": "listingId",
          "type": "uint256"
        },
        {
          "indexed": true,
          "internalType": "address",
          "name": "nftContract",
          "type": "address"
        },
        {
          "indexed": true,
          "internalType": "uint256",
          "name": "tokenId",
          "type": "uint256"
        },
        {
          "indexed": false,
          "internalType": "address",
          "name": "seller",
          "type": "address"
        }
      ],
      "name": "ListingCancelled",
      "type": "event"
    },
    {
      "anonymous": false,
      "inputs": [
        {
          "indexed": true,
          "internalType": "uint256",
          "name": "listingId",
          "type": "uint256"
        }
      ],
      "name": "ListingPaused",
      "type": "event"
    },
    {
      "anonymous": false,
      "inputs": [
        {
          "indexed": true,
          "internalType": "uint256",
          "name": "listingId",
          "type": "uint256"
        }
      ],
      "name": "ListingResumed",
      "type": "event"
    },
    {
      "anonymous": false,
      "inputs": [
        {
          "indexed": true,
          "internalType": "uint256",
          "name": "listingId",
          "type": "uint256"
        },
        {
          "indexed": true,
          "internalType": "address",
          "name": "nftContract",
          "type": "address"
        },
        {
          "indexed": true,
          "internalType": "uint256",
          "name": "tokenId",
          "type": "uint256"
        },
        {
          "indexed": false,
          "internalType": "address",
          "name": "seller",
          "type": "address"
        },
        {
          "indexed": false,
          "internalType": "uint256",
          "name": "price",
          "type": "uint256"
        }
      ],
      "name": "NFTListed",
      "type": "event"
    },
    {
      "anonymous": false,
      "inputs": [
        {
          "indexed": true,
          "internalType": "uint256",
          "name": "listingId",
          "type": "uint256"
        },
        {
          "indexed": true,
          "internalType": "address",
          "name": "nftContract",
          "type": "address"
        },
        {
          "indexed": true,
          "internalType": "uint256",
          "name": "tokenId",
          "type": "uint256"
        },
        {
          "indexed": false,
          "internalType": "address",
          "name": "seller",
          "type": "address"
        },
        {
          "indexed": false,
          "internalType": "address",
          "name": "buyer",
          "type": "address"
        },
        {
          "indexed": false,
          "internalType": "uint256",
          "name": "price",
          "type": "uint256"
        }
      ],
      "name": "NFTSold",
      "type": "event"
    },
    {
      "anonymous": false,
      "inputs": [
        {
          "indexed": true,
          "internalType": "uint256",
          "name": "listingId",
          "type": "uint256"
        },
        {
          "indexed": true,
          "internalType": "address",
          "name": "offerer",
          "type": "address"
        },
        {
          "indexed": false,
          "internalType": "uint256",
          "name": "amount",
          "type": "uint256"
        }
      ],
      "name": "OfferAccepted",
      "type": "event"
    },
    {
      "anonymous": false,
      "inputs": [
        {
          "indexed": true,
          "internalType": "uint256",
          "name": "listingId",
          "type": "uint256"
        },
        {
          "indexed": true,
          "internalType": "address",
          "name": "offerer",
          "type": "address"
        },
        {
          "indexed": false,
          "internalType": "uint256",
          "name": "amount",
          "type": "uint256"
        }
      ],
      "name": "OfferCancelled",
      "type": "event"
    },
    {
      "anonymous": false,
      "inputs": [
        {
          "indexed": true,
          "internalType": "uint256",
          "name": "listingId",
          "type": "uint256"
        },
        {
          "indexed": true,
          "internalType": "address",
          "name": "offerer",
          "type": "address"
        },
        {
          "indexed": false,
          "internalType": "uint256",
          "name": "amount",
          "type": "uint256"
        },
        {
          "indexed": false,
          "internalType": "uint256",
          "name": "expiration",
          "type": "uint256"
        }
      ],
      "name": "OfferMade",
      "type": "event"
    },
    {
      "anonymous": false,
      "inputs": [
        {
          "indexed": true,
          "internalType": "address",
          "name": "previousOwner",
          "type": "address"
        },
        {
          "indexed": true,
          "internalType": "address",
          "name": "newOwner",
          "type": "address"
        }
      ],
      "name": "OwnershipTransferred",
      "type": "event"
    },
    {
      "inputs": [
        {
          "internalType": "uint256",
          "name": "listingId",
          "type": "uint256"
        },
        {
          "internalType": "uint256",
          "name": "offerIndex",
          "type": "uint256"
        }
      ],
      "name": "acceptOffer",
      "outputs": [],
      "stateMutability": "nonpayable",
      "type": "function"
    },
    {
      "inputs": [
        {
          "internalType": "uint256",
          "name": "",
          "type": "uint256"
        },
        {
          "internalType": "uint256",
          "name": "",
          "type": "uint256"
        }
      ],
      "name": "auctionBidders",
      "outputs": [
        {
          "internalType": "address",
          "name": "",
          "type": "address"
        }
      ],
      "stateMutability": "view",
      "type": "function"
    },
    {
      "inputs": [
        {
          "internalType": "uint256",
          "name": "",
          "type": "uint256"
        },
        {
          "internalType": "address",
          "name": "",
          "type": "address"
        }
      ],
      "name": "bidCommitments",
      "outputs": [
        {
          "internalType": "bytes32",
          "name": "",
          "type": "bytes32"
        }
      ],
      "stateMutability": "view",
      "type": "function"
    },
    {
      "inputs": [
        {
          "internalType": "uint256",
          "name": "",
          "type": "uint256"
        }
      ],
      "name": "blindAuctions",
      "outputs": [
        {
          "internalType": "uint256",
          "name": "auctionId",
          "type": "uint256"
        },
        {
          "internalType": "uint256",
          "name": "tokenId",
          "type": "uint256"
        },
        {
          "internalType": "address",
          "name": "nftContract",
          "type": "address"
        },
        {
          "internalType": "address",
          "name": "seller",
          "type": "address"
        },
        {
          "internalType": "uint256",
          "name": "minBid",
          "type": "uint256"
        },
        {
          "internalType": "uint256",
          "name": "commitEnd",
          "type": "uint256"
        },
        {
          "internalType": "uint256",
          "name": "revealEnd",
          "type": "uint256"
        },
        {
          "internalType": "bool",
          "name": "finalized",
          "type": "bool"
        },
        {
          "internalType": "address",
          "name": "highestBidder",
          "type": "address"
        },
        {
          "internalType": "uint256",
          "name": "highestBid",
          "type": "uint256"
        }
      ],
      "stateMutability": "view",
      "type": "function"
    },
    {
      "inputs": [
        {
          "internalType": "uint256",
          "name": "listingId",
          "type": "uint256"
        }
      ],
      "name": "buyNFT",
      "outputs": [],
      "stateMutability": "payable",
      "type": "function"
    },
    {
      "inputs": [
        {
          "internalType": "uint256",
          "name": "listingId",
          "type": "uint256"
        }
      ],
      "name": "cancelListing",
      "outputs": [],
      "stateMutability": "nonpayable",
      "type": "function"
    },
    {
      "inputs": [
        {
          "internalType": "uint256",
          "name": "listingId",
          "type": "uint256"
        },
        {
          "internalType": "uint256",
          "name": "offerIndex",
          "type": "uint256"
        }
      ],
      "name": "cancelOffer",
      "outputs": [],
      "stateMutability": "nonpayable",
      "type": "function"
    },
    {
      "inputs": [
        {
          "internalType": "uint256",
          "name": "auctionId",
          "type": "uint256"
        },
        {
          "internalType": "bytes32",
          "name": "commitment",
          "type": "bytes32"
        }
      ],
      "name": "commitBlindBid",
      "outputs": [],
      "stateMutability": "nonpayable",
      "type": "function"
    },
    {
      "inputs": [
        {
          "internalType": "address",
          "name": "nftContract",
          "type": "address"
        },
        {
          "internalType": "uint256",
          "name": "tokenId",
          "type": "uint256"
        },
        {
          "internalType": "uint256",
          "name": "minBid",
          "type": "uint256"
        },
        {
          "internalType": "uint256",
          "name": "commitDuration",
          "type": "uint256"
        },
        {
          "internalType": "uint256",
          "name": "revealDuration",
          "type": "uint256"
        }
      ],
      "name": "createBlindAuction",
      "outputs": [],
      "stateMutability": "nonpayable",
      "type": "function"
    },
    {
      "inputs": [
        {
          "internalType": "address",
          "name": "nftContract",
          "type": "address"
        },
        {
          "internalType": "uint256",
          "name": "tokenId",
          "type": "uint256"
        },
        {
          "internalType": "address",
          "name": "to",
          "type": "address"
        }
      ],
      "name": "emergencyRecoverNFT",
      "outputs": [],
      "stateMutability": "nonpayable",
      "type": "function"
    },
    {
      "inputs": [
        {
          "internalType": "uint256",
          "name": "auctionId",
          "type": "uint256"
        }
      ],
      "name": "finalizeBlindAuction",
      "outputs": [],
      "stateMutability": "nonpayable",
      "type": "function"
    },
    {
      "inputs": [
        {
          "internalType": "address",
          "name": "nftContract",
          "type": "address"
        },
        {
          "internalType": "uint256",
          "name": "tokenId",
          "type": "uint256"
        }
      ],
      "name": "getActiveListing",
      "outputs": [
        {
          "internalType": "uint256",
          "name": "",
          "type": "uint256"
        }
      ],
      "stateMutability": "view",
      "type": "function"
    },
    {
      "inputs": [],
      "name": "getAllActiveBlindAuctions",
      "outputs": [
        {
          "components": [
            {
              "internalType": "uint256",
              "name": "auctionId",
              "type": "uint256"
            },
            {
              "internalType": "uint256",
              "name": "tokenId",
              "type": "uint256"
            },
            {
              "internalType": "address",
              "name": "nftContract",
              "type": "address"
            },
            {
              "internalType": "address",
              "name": "seller",
              "type": "address"
            },
            {
              "internalType": "uint256",
              "name": "minBid",
              "type": "uint256"
            },
            {
              "internalType": "uint256",
              "name": "commitEnd",
              "type": "uint256"
            },
            {
              "internalType": "uint256",
              "name": "revealEnd",
              "type": "uint256"
            },
            {
              "internalType": "bool",
              "name": "finalized",
              "type": "bool"
            },
            {
              "internalType": "address",
              "name": "highestBidder",
              "type": "address"
            },
            {
              "internalType": "uint256",
              "name": "highestBid",
              "type": "uint256"
            }
          ],
          "internalType": "struct NFTMarketplace.BlindAuction[]",
          "name": "",
          "type": "tuple[]"
        }
      ],
      "stateMutability": "view",
      "type": "function"
    },
    {
      "inputs": [],
      "name": "getAllActiveListings",
      "outputs": [
        {
          "components": [
            {
              "internalType": "uint256",
              "name": "listingId",
              "type": "uint256"
            },
            {
              "internalType": "uint256",
              "name": "tokenId",
              "type": "uint256"
            },
            {
              "internalType": "address",
              "name": "nftContract",
              "type": "address"
            },
            {
              "internalType": "address",
              "name": "seller",
              "type": "address"
            },
            {
              "internalType": "uint256",
              "name": "price",
              "type": "uint256"
            },
            {
              "internalType": "bool",
              "name": "active",
              "type": "bool"
            }
          ],
          "internalType": "struct NFTMarketplace.ListingWithId[]",
          "name": "",
          "type": "tuple[]"
        }
      ],
      "stateMutability": "view",
      "type": "function"
    },
    {
      "inputs": [
        {
          "internalType": "address",
          "name": "seller",
          "type": "address"
        }
      ],
      "name": "getListingsBySeller",
      "outputs": [
        {
          "components": [
            {
              "internalType": "uint256",
              "name": "listingId",
              "type": "uint256"
            },
            {
              "internalType": "uint256",
              "name": "tokenId",
              "type": "uint256"
            },
            {
              "internalType": "address",
              "name": "nftContract",
              "type": "address"
            },
            {
              "internalType": "address",
              "name": "seller",
              "type": "address"
            },
            {
              "internalType": "uint256",
              "name": "price",
              "type": "uint256"
            },
            {
              "internalType": "bool",
              "name": "active",
              "type": "bool"
            }
          ],
          "internalType": "struct NFTMarketplace.ListingWithId[]",
          "name": "",
          "type": "tuple[]"
        }
      ],
      "stateMutability": "view",
      "type": "function"
    },
    {
      "inputs": [
        {
          "internalType": "uint256",
          "name": "listingId",
          "type": "uint256"
        }
      ],
      "name": "getOffers",
      "outputs": [
        {
          "components": [
            {
              "internalType": "address",
              "name": "offerer",
              "type": "address"
            },
            {
              "internalType": "uint256",
              "name": "amount",
              "type": "uint256"
            },
            {
              "internalType": "uint256",
              "name": "expiration",
              "type": "uint256"
            },
            {
              "internalType": "bool",
              "name": "active",
              "type": "bool"
            }
          ],
          "internalType": "struct NFTMarketplace.Offer[]",
          "name": "",
          "type": "tuple[]"
        }
      ],
      "stateMutability": "view",
      "type": "function"
    },
    {
      "inputs": [
        {
          "internalType": "address",
          "name": "nftContract",
          "type": "address"
        },
        {
          "internalType": "uint256",
          "name": "tokenId",
          "type": "uint256"
        },
        {
          "internalType": "uint256",
          "name": "price",
          "type": "uint256"
        }
      ],
      "name": "listNFT",
      "outputs": [],
      "stateMutability": "nonpayable",
      "type": "function"
    },
    {
      "inputs": [
        {
          "internalType": "uint256",
          "name": "",
          "type": "uint256"
        },
        {
          "internalType": "uint256",
          "name": "",
          "type": "uint256"
        }
      ],
      "name": "listingOffers",
      "outputs": [
        {
          "internalType": "address",
          "name": "offerer",
          "type": "address"
        },
        {
          "internalType": "uint256",
          "name": "amount",
          "type": "uint256"
        },
        {
          "internalType": "uint256",
          "name": "expiration",
          "type": "uint256"
        },
        {
          "internalType": "bool",
          "name": "active",
          "type": "bool"
        }
      ],
      "stateMutability": "view",
      "type": "function"
    },
    {
      "inputs": [
        {
          "internalType": "uint256",
          "name": "",
          "type": "uint256"
        }
      ],
      "name": "listings",
      "outputs": [
        {
          "internalType": "uint256",
          "name": "tokenId",
          "type": "uint256"
        },
        {
          "internalType": "address",
          "name": "nftContract",
          "type": "address"
        },
        {
          "internalType": "address",
          "name": "seller",
          "type": "address"
        },
        {
          "internalType": "uint256",
          "name": "price",
          "type": "uint256"
        },
        {
          "internalType": "bool",
          "name": "active",
          "type": "bool"
        }
      ],
      "stateMutability": "view",
      "type": "function"
    },
    {
      "inputs": [
        {
          "internalType": "uint256",
          "name": "listingId",
          "type": "uint256"
        },
        {
          "internalType": "uint256",
          "name": "expiration",
          "type": "uint256"
        }
      ],
      "name": "makeOffer",
      "outputs": [],
      "stateMutability": "payable",
      "type": "function"
    },
    {
      "inputs": [],
      "name": "marketplaceFee",
      "outputs": [
        {
          "internalType": "uint256",
          "name": "",
          "type": "uint256"
        }
      ],
      "stateMutability": "view",
      "type": "function"
    },
    {
      "inputs": [],
      "name": "nextAuctionId",
      "outputs": [
        {
          "internalType": "uint256",
          "name": "",
          "type": "uint256"
        }
      ],
      "stateMutability": "view",
      "type": "function"
    },
    {
      "inputs": [],
      "name": "nextListingId",
      "outputs": [
        {
          "internalType": "uint256",
          "name": "",
          "type": "uint256"
        }
      ],
      "stateMutability": "view",
      "type": "function"
    },
    {
      "inputs": [
        {
          "internalType": "address",
          "name": "",
          "type": "address"
        },
        {
          "internalType": "address",
          "name": "",
          "type": "address"
        },
        {
          "internalType": "uint256",
          "name": "",
          "type": "uint256"
        },
        {
          "internalType": "bytes",
          "name": "",
          "type": "bytes"
        }
      ],
      "name": "onERC721Received",
      "outputs": [
        {
          "internalType": "bytes4",
          "name": "",
          "type": "bytes4"
        }
      ],
      "stateMutability": "pure",
      "type": "function"
    },
    {
      "inputs": [],
      "name": "owner",
      "outputs": [
        {
          "internalType": "address",
          "name": "",
          "type": "address"
        }
      ],
      "stateMutability": "view",
      "type": "function"
    },
    {
      "inputs": [
        {
          "internalType": "uint256",
          "name": "listingId",
          "type": "uint256"
        }
      ],
      "name": "pauseListing",
      "outputs": [],
      "stateMutability": "nonpayable",
      "type": "function"
    },
    {
      "inputs": [],
      "name": "renounceOwnership",
      "outputs": [],
      "stateMutability": "nonpayable",
      "type": "function"
    },
    {
      "inputs": [
        {
          "internalType": "uint256",
          "name": "listingId",
          "type": "uint256"
        }
      ],
      "name": "resumeListing",
      "outputs": [],
      "stateMutability": "nonpayable",
      "type": "function"
    },
    {
      "inputs": [
        {
          "internalType": "uint256",
          "name": "auctionId",
          "type": "uint256"
        },
        {
          "internalType": "uint256",
          "name": "amount",
          "type": "uint256"
        },
        {
          "internalType": "bytes32",
          "name": "secret",
          "type": "bytes32"
        }
      ],
      "name": "revealBlindBid",
      "outputs": [],
      "stateMutability": "payable",
      "type": "function"
    },
    {
      "inputs": [
        {
          "internalType": "uint256",
          "name": "",
          "type": "uint256"
        },
        {
          "internalType": "address",
          "name": "",
          "type": "address"
        }
      ],
      "name": "revealedAmounts",
      "outputs": [
        {
          "internalType": "uint256",
          "name": "",
          "type": "uint256"
        }
      ],
      "stateMutability": "view",
      "type": "function"
    },
    {
      "inputs": [
        {
          "internalType": "uint256",
          "name": "newFee",
          "type": "uint256"
        }
      ],
      "name": "setMarketplaceFee",
      "outputs": [],
      "stateMutability": "nonpayable",
      "type": "function"
    },
    {
      "inputs": [
        {
          "internalType": "address",
          "name": "",
          "type": "address"
        },
        {
          "internalType": "uint256",
          "name": "",
          "type": "uint256"
        }
      ],
      "name": "tokenToListing",
      "outputs": [
        {
          "internalType": "uint256",
          "name": "",
          "type": "uint256"
        }
      ],
      "stateMutability": "view",
      "type": "function"
    },
    {
      "inputs": [
        {
          "internalType": "address",
          "name": "newOwner",
          "type": "address"
        }
      ],
      "name": "transferOwnership",
      "outputs": [],
      "stateMutability": "nonpayable",
      "type": "function"
    },
    {
      "inputs": [
        {
          "internalType": "uint256",
          "name": "listingId",
          "type": "uint256"
        },
        {
          "internalType": "uint256",
          "name": "newPrice",
          "type": "uint256"
        }
      ],
      "name": "updatePrice",
      "outputs": [],
      "stateMutability": "nonpayable",
      "type": "function"
    },
    {
      "inputs": [],
      "name": "withdrawFees",
      "outputs": [],
      "stateMutability": "nonpayable",
      "type": "function"
    }
  ],
  "transactionHash": "0x3141410d88d83a932b920862f4c4f104a312018cea8dae206ff6820113b7f9a8",
  "args": [],
  "numDeployments": 1,
  "solcInputHash": "8e8f6ad1a9ef7da84272803e0b24e21a",
  "bytecode": "0x6080604052600160045560fa60055560016008553480156200002057600080fd5b50600160005533806200004d57604051631e4fbdf760e01b81526000600482015260240160405180910390fd5b62000058816200005f565b50620000b1565b600180546001600160a01b038381166001600160a01b0319831681179093556040519116919082907f8be0079c531659141344cd1fd0a4f28419497f9722a3daafe3b4186f6b6457e090600090a35050565b613e9380620000c16000396000f3fe6080604052600436106102045760003560e01c806381257bd511610118578063bad27f9b116100a0578063de74e57b1161006f578063de74e57b14610640578063dfa49e6f146106cf578063e5b2af53146106fc578063f2fde38b146107d7578063fc528482146107f757600080fd5b8063bad27f9b146105c0578063c4c54188146105e0578063d45557cc14610600578063d8cba2511461062057600080fd5b80638805e244116100e75780638805e2441461052a5780638da5cb5b1461054c5780639407ea981461056a578063aaccf1ec1461058a578063ad05f1b4146105a057600080fd5b806381257bd51461049257806381d67b26146104b257806382367b2d146104d2578063860d5678146104f257600080fd5b80634c33efe91161019b578063564e27ee1161016a578063564e27ee146103c75780636a1669641461040d5780636f7b435214610423578063701e50841461045b578063715018a61461047d57600080fd5b80634c33efe91461036157806350f771561461037457806351ed8288146103945780635468ccc4146103a757600080fd5b8063150b7a02116101d7578063150b7a021461029b57806320e33db8146102e0578063305a67a81461032c578063476343ee1461034c57600080fd5b8063026967e01461020957806305b7cdd31461022b5780630f715f1d1461023e5780631385205c1461027b575b600080fd5b34801561021557600080fd5b506102296102243660046138b8565b61080d565b005b6102296102393660046138fc565b610cea565b34801561024a57600080fd5b5061025e6102593660046138fc565b610edf565b6040516001600160a01b0390911681526020015b60405180910390f35b34801561028757600080fd5b5061022961029636600461391e565b610f17565b3480156102a757600080fd5b506102c76102b6366004613937565b630a85bd0160e11b95945050505050565b6040516001600160e01b03199091168152602001610272565b3480156102ec57600080fd5b506103006102fb3660046138fc565b61122f565b604080516001600160a01b03909516855260208501939093529183015215156060820152608001610272565b34801561033857600080fd5b5061022961034736600461391e565b611282565b34801561035857600080fd5b50610229611439565b61022961036f3660046139d6565b61152d565b34801561038057600080fd5b5061022961038f36600461391e565b611824565b6102296103a236600461391e565b61192c565b3480156103b357600080fd5b506102296103c236600461391e565b611d45565b3480156103d357600080fd5b506103ff6103e2366004613a02565b600960209081526000928352604080842090915290825290205481565b604051908152602001610272565b34801561041957600080fd5b506103ff60055481565b34801561042f57600080fd5b506103ff61043e366004613a32565b600360209081526000928352604080842090915290825290205481565b34801561046757600080fd5b50610470612250565b6040516102729190613a5e565b34801561048957600080fd5b506102296123ca565b34801561049e57600080fd5b506102296104ad3660046138fc565b6123de565b3480156104be57600080fd5b506102296104cd3660046138fc565b612994565b3480156104de57600080fd5b506102296104ed3660046138fc565b612aef565b3480156104fe57600080fd5b506103ff61050d366004613a02565b600a60209081526000928352604080842090915290825290205481565b34801561053657600080fd5b5061053f612bf3565b6040516102729190613ae6565b34801561055857600080fd5b506001546001600160a01b031661025e565b34801561057657600080fd5b5061022961058536600461391e565b612e49565b34801561059657600080fd5b506103ff60045481565b3480156105ac57600080fd5b506102296105bb366004613b8e565b612ea0565b3480156105cc57600080fd5b506103ff6105db366004613a32565b61326c565b3480156105ec57600080fd5b506102296105fb366004613bc3565b613297565b34801561060c57600080fd5b5061022961061b3660046138fc565b613306565b34801561062c57600080fd5b5061047061063b366004613c05565b6134ed565b34801561064c57600080fd5b5061069961065b36600461391e565b60026020819052600091825260409091208054600182015492820154600383015460049093015491936001600160a01b039081169391169160ff1685565b604080519586526001600160a01b039485166020870152929093169184019190915260608301521515608082015260a001610272565b3480156106db57600080fd5b506106ef6106ea36600461391e565b6136d3565b6040516102729190613c29565b34801561070857600080fd5b5061077c61071736600461391e565b6007602081905260009182526040909120805460018201546002830154600384015460048501546005860154600687015497870154600890970154959794966001600160a01b0394851696938516959294919360ff821692610100909204909116908a565b604080519a8b5260208b01999099526001600160a01b03978816988a01989098529486166060890152608088019390935260a087019190915260c0860152151560e08501521661010083015261012082015261014001610272565b3480156107e357600080fd5b506102296107f2366004613c05565b613775565b34801561080357600080fd5b506103ff60085481565b6108156137b0565b600083116108605760405162461bcd60e51b815260206004820152601360248201527204d696e20626964206d757374206265203e203606c1b60448201526064015b60405180910390fd5b6000821180156108705750600081115b6108b05760405162461bcd60e51b8152602060048201526011602482015270496e76616c6964206475726174696f6e7360781b6044820152606401610857565b6040516331a9108f60e11b815260048101859052859033906001600160a01b03831690636352211e90602401602060405180830381865afa1580156108f9573d6000803e3d6000fd5b505050506040513d601f19601f8201168201806040525081019061091d9190613c8b565b6001600160a01b03161461096c5760405162461bcd60e51b8152602060048201526016602482015275165bdd48191bdb89dd081bdddb881d1a1a5cc813919560521b6044820152606401610857565b60405163e985e9c560e01b81523360048201523060248201526001600160a01b0382169063e985e9c590604401602060405180830381865afa1580156109b6573d6000803e3d6000fd5b505050506040513d601f19601f820116820180604052508101906109da9190613ca8565b80610a56575060405163020604bf60e21b81526004810186905230906001600160a01b0383169063081812fc90602401602060405180830381865afa158015610a27573d6000803e3d6000fd5b505050506040513d601f19601f82011682018060405250810190610a4b9190613c8b565b6001600160a01b0316145b610a725760405162461bcd60e51b815260040161085790613cca565b6008805460009182610a8383613d17565b90915550604051632142170760e11b81529091506001600160a01b038316906342842e0e90610aba90339030908b90600401613d30565b600060405180830381600087803b158015610ad457600080fd5b505af1158015610ae8573d6000803e3d6000fd5b5050505060008442610afa9190613d54565b90506000610b088583613d54565b90506040518061014001604052808481526020018981526020018a6001600160a01b03168152602001336001600160a01b0316815260200188815260200183815260200182815260200160001515815260200160006001600160a01b03168152602001600081525060076000858152602001908152602001600020600082015181600001556020820151816001015560408201518160020160006101000a8154816001600160a01b0302191690836001600160a01b0316021790555060608201518160030160006101000a8154816001600160a01b0302191690836001600160a01b031602179055506080820151816004015560a0820151816005015560c0820151816006015560e08201518160070160006101000a81548160ff0219169083151502179055506101008201518160070160016101000a8154816001600160a01b0302191690836001600160a01b03160217905550610120820151816008015590505087896001600160a01b0316847fad30245fe5a0a7e2db09402d36cfa674822fb86ad3a969763138b532e310ae96338b8787604051610ccd94939291906001600160a01b0394909416845260208401929092526040830152606082015260800190565b60405180910390a450505050610ce36001600055565b5050505050565b610cf26137b0565b6000828152600260205260409020600481015460ff16610d245760405162461bcd60e51b815260040161085790613d67565b60028101546001600160a01b03163303610d765760405162461bcd60e51b815260206004820152601360248201527229b2b63632b91031b0b73737ba1037b33332b960691b6044820152606401610857565b60003411610dba5760405162461bcd60e51b815260206004820152601160248201527004f66666572206d757374206265203e203607c1b6044820152606401610857565b428211610e095760405162461bcd60e51b815260206004820152601c60248201527f45787069726174696f6e206d75737420626520696e20667574757265000000006044820152606401610857565b6000838152600660209081526040808320815160808101835233808252348286018181528386018a815260016060860181815287548083018955978b52998990209551600490970290950180546001600160a01b0319166001600160a01b039097169690961786559051938501939093559151600284015594516003909201805460ff191692151592909217909155815190815291820185905285917fd7df0c72641d362ea57ecc9cab99c77f936e36bb826f096258c3404196b26d6a910160405180910390a350610edb6001600055565b5050565b600b6020528160005260406000208181548110610efb57600080fd5b6000918252602090912001546001600160a01b03169150829050565b6000818152600260205260409020600481015460ff1615610f735760405162461bcd60e51b81526020600482015260166024820152754c697374696e6720616c72656164792061637469766560501b6044820152606401610857565b60028101546001600160a01b03163314610fc85760405162461bcd60e51b81526020600482015260166024820152754f6e6c792073656c6c65722063616e20726573756d6560501b6044820152606401610857565b60018101546001600160a01b0316600090815260036020908152604080832084548452909152902054821461100f5760405162461bcd60e51b815260040161085790613d67565b6001810154600282015482546040516331a9108f60e11b815260048101919091526001600160a01b0392831692909116908290636352211e90602401602060405180830381865afa158015611068573d6000803e3d6000fd5b505050506040513d601f19601f8201168201806040525081019061108c9190613c8b565b6001600160a01b0316146110da5760405162461bcd60e51b815260206004820152601560248201527453656c6c6572206e6f206c6f6e676572206f776e7360581b6044820152606401610857565b600282015460405163e985e9c560e01b81526001600160a01b0391821660048201523060248201529082169063e985e9c590604401602060405180830381865afa15801561112c573d6000803e3d6000fd5b505050506040513d601f19601f820116820180604052508101906111509190613ca8565b806111d45750815460405163020604bf60e21b815230916001600160a01b0384169163081812fc916111889160040190815260200190565b602060405180830381865afa1580156111a5573d6000803e3d6000fd5b505050506040513d601f19601f820116820180604052508101906111c99190613c8b565b6001600160a01b0316145b6111f05760405162461bcd60e51b815260040161085790613cca565b60048201805460ff1916600117905560405183907f7f1dfa1d44f6d2da78c00df64b0116c918dacbb9a4e0671e474603a326c4e23690600090a2505050565b6006602052816000526040600020818154811061124b57600080fd5b600091825260209091206004909102018054600182015460028301546003909301546001600160a01b039092169450925060ff1684565b61128a6137b0565b6000818152600260208190526040909120908101546001600160a01b03166112e85760405162461bcd60e51b8152602060048201526011602482015270131a5cdd1a5b99c81b9bdd08199bdd5b99607a1b6044820152606401610857565b60018101546001600160a01b0316600090815260036020908152604080832084548452909152902054821461132f5760405162461bcd60e51b815260040161085790613d67565b60028101546001600160a01b03163314806113635750336113586001546001600160a01b031690565b6001600160a01b0316145b6113af5760405162461bcd60e51b815260206004820152601f60248201527f4f6e6c792073656c6c6572206f72206f776e65722063616e2063616e63656c006044820152606401610857565b60048101805460ff191690556001810180546001600160a01b03908116600090815260036020908152604080832086548452825280832092909255845493546002860154925192841683529092169185917f69e5af4ae7d64e2ae64974f8f3d1149f91bd39f3b1dc649f7add227a19093a07910160405180910390a4506114366001600055565b50565b6114416137da565b47806114855760405162461bcd60e51b81526020600482015260136024820152724e6f206665657320746f20776974686472617760681b6044820152606401610857565b60006114996001546001600160a01b031690565b6001600160a01b03168260405160006040518083038185875af1925050503d80600081146114e3576040519150601f19603f3d011682016040523d82523d6000602084013e6114e8565b606091505b5050905080610edb5760405162461bcd60e51b815260206004820152601160248201527015da5d1a191c985dd85b0819985a5b1959607a1b6044820152606401610857565b6115356137b0565b600083815260076020526040902060038101546001600160a01b031661156d5760405162461bcd60e51b815260040161085790613d93565b806005015442101580156115845750806006015442105b6115c65760405162461bcd60e51b81526020600482015260136024820152724e6f7420696e2072657665616c20706861736560681b6044820152606401610857565b600084815260096020908152604080832033845290915290205461161c5760405162461bcd60e51b815260206004820152600d60248201526c139bc818dbdb5b5a5d1b595b9d609a1b6044820152606401610857565b6000848152600a60209081526040808320338452909152902054156116765760405162461bcd60e51b815260206004820152601060248201526f105b1c9958591e481c995d99585b195960821b6044820152606401610857565b80600401548310156116be5760405162461bcd60e51b81526020600482015260116024820152704269642062656c6f77206d696e696d756d60781b6044820152606401610857565b8234146117025760405162461bcd60e51b8152602060048201526012602482015271125b98dbdc9c9958dd08115512081cd95b9d60721b6044820152606401610857565b604080516020810185905290810183905233606082015260009060800160408051601f19818403018152918152815160209283012060008881526009845282812033825290935291205490915081146117935760405162461bcd60e51b8152602060048201526013602482015272086dedadad2e8dacadce840dad2e6dac2e8c6d606b1b6044820152606401610857565b6000858152600a60209081526040808320338452909152902084905560088201548411156117dc5760088201849055600782018054610100600160a81b03191633610100021790555b604051848152339086907f373bdc004f956a2dba0d9782db4547b4d704309b5e27eb53a5bdc1799a79f2469060200160405180910390a3505061181f6001600055565b505050565b6000818152600260205260409020600481015460ff166118565760405162461bcd60e51b815260040161085790613d67565b60028101546001600160a01b031633146118aa5760405162461bcd60e51b81526020600482015260156024820152744f6e6c792073656c6c65722063616e20706175736560581b6044820152606401610857565b60018101546001600160a01b031660009081526003602090815260408083208454845290915290205482146118f15760405162461bcd60e51b815260040161085790613d67565b60048101805460ff1916905560405182907fccf05f4102545965ec08932c92c4db5980b2c27c5fc913e64756615f59e8e68990600090a25050565b6119346137b0565b6000818152600260205260409020600481015460ff166119665760405162461bcd60e51b815260040161085790613d67565b80600301543410156119b15760405162461bcd60e51b8152602060048201526014602482015273125b9cdd59999a58da595b9d081c185e5b595b9d60621b6044820152606401610857565b60028101546001600160a01b03163303611a0d5760405162461bcd60e51b815260206004820152601760248201527f43616e6e6f742062757920796f7572206f776e204e46540000000000000000006044820152606401610857565b6002810154600182015482546040516331a9108f60e11b815260048101919091526001600160a01b039283169290911690636352211e90602401602060405180830381865afa158015611a64573d6000803e3d6000fd5b505050506040513d601f19601f82011682018060405250810190611a889190613c8b565b6001600160a01b031614611ade5760405162461bcd60e51b815260206004820152601e60248201527f53656c6c6572206e6f206c6f6e676572206f776e732074686973204e465400006044820152606401610857565b60048101805460ff1916905560018101546001600160a01b031660009081526003602081815260408084208554855290915282208290556005549083015461271091611b2991613dbe565b611b339190613dd5565b90506000818360030154611b479190613df7565b600184015460028501548554604051632142170760e11b81529394506001600160a01b03928316936342842e0e93611b859316913391600401613d30565b600060405180830381600087803b158015611b9f57600080fd5b505af1158015611bb3573d6000803e3d6000fd5b5050505060028301546040516000916001600160a01b03169083908381818185875af1925050503d8060008114611c06576040519150601f19603f3d011682016040523d82523d6000602084013e611c0b565b606091505b5050905080611c575760405162461bcd60e51b815260206004820152601860248201527714185e5b595b9d081d1bc81cd95b1b195c8819985a5b195960421b6044820152606401610857565b8360030154341115611cdb5760038401546000903390611c779034613df7565b604051600081818185875af1925050503d8060008114611cb3576040519150601f19603f3d011682016040523d82523d6000602084013e611cb8565b606091505b5050905080611cd95760405162461bcd60e51b815260040161085790613e0a565b505b83546001850154600286015460038701546040516001600160a01b03938416938a937ffbd14ef83c9e36d4cd05cdc496d3b3a07da3041679b4142908d0ef3cef210dc493611d2f9391909216913391613d30565b60405180910390a4505050506114366001600055565b611d4d6137b0565b600081815260076020526040902060038101546001600160a01b0316611d855760405162461bcd60e51b815260040161085790613d93565b8060060154421015611dd25760405162461bcd60e51b815260206004820152601660248201527514995d99585b081c1a185cd9481b9bdd08195b99195960521b6044820152606401610857565b600781015460ff1615611e1b5760405162461bcd60e51b8152602060048201526011602482015270105b1c9958591e48199a5b985b1a5e9959607a1b6044820152606401610857565b60038101546001600160a01b0316331480611e4057506001546001600160a01b031633145b611e835760405162461bcd60e51b815260206004820152601460248201527327b7363c9039b2b63632b91037b91037bbb732b960611b6044820152606401610857565b600281015460078201546001600160a01b03918216916101009091041615611ff45760006127106005548460080154611ebc9190613dbe565b611ec69190613dd5565b90506000818460080154611eda9190613df7565b60078501546001860154604051632142170760e11b81529293506001600160a01b03808716936342842e0e93611f1e93309361010090920490911691600401613d30565b600060405180830381600087803b158015611f3857600080fd5b505af1158015611f4c573d6000803e3d6000fd5b5050505060038401546040516000916001600160a01b03169083908381818185875af1925050503d8060008114611f9f576040519150601f19603f3d011682016040523d82523d6000602084013e611fa4565b606091505b5050905080611fec5760405162461bcd60e51b815260206004820152601460248201527314d95b1b195c881c185e5bdd5d0819985a5b195960621b6044820152606401610857565b505050612062565b60038201546001830154604051632142170760e11b81526001600160a01b03848116936342842e0e9361202f93309390921691600401613d30565b600060405180830381600087803b15801561204957600080fd5b505af115801561205d573d6000803e3d6000fd5b505050505b60078201546000848152600b6020908152604080832080548251818502810185019093528083526101009095046001600160a01b03169491929091908301828280156120d757602002820191906000526020600020905b81546001600160a01b031681526001909101906020018083116120b9575b5050505050905060005b81518110156121df5760008282815181106120fe576120fe613e31565b6020908102919091018101516000898152600a835260408082206001600160a01b0384168352909352919091205490915080158015906121505750846001600160a01b0316826001600160a01b031614155b156121ca576000826001600160a01b03168260405160006040518083038185875af1925050503d80600081146121a2576040519150601f19603f3d011682016040523d82523d6000602084013e6121a7565b606091505b50509050806121c85760405162461bcd60e51b815260040161085790613e0a565b505b505080806121d790613d17565b9150506120e1565b50600784018054600160ff1990911617908190556008850154604080516101009093046001600160a01b03168352602083019190915286917fc06886faca1451427d3bb8cc21e2697c848b39fd48e36628add35d9e50daece9910160405180910390a2505050506114366001600055565b6060600060015b60045481101561229b5760008181526002602052604090206004015460ff1615612289578161228581613d17565b9250505b8061229381613d17565b915050612257565b5060008167ffffffffffffffff8111156122b7576122b7613e47565b6040519080825280602002602001820160405280156122f057816020015b6122dd613859565b8152602001906001900390816122d55790505b509050600060015b6004548110156123c15760008181526002602052604090206004015460ff16156123af576040805160c08101825282815260008381526002602081815284832080548286015260018101546001600160a01b03908116968601969096528083015490951660608501526003850154608085015291859052905260049091015460ff16151560a0820152835184908490811061239557612395613e31565b602002602001018190525081806123ab90613d17565b9250505b806123b981613d17565b9150506122f8565b50909392505050565b6123d26137da565b6123dc6000613807565b565b6123e66137b0565b6000828152600260205260409020600481015460ff166124185760405162461bcd60e51b815260040161085790613d67565b60028101546001600160a01b031633146124625760405162461bcd60e51b815260206004820152600b60248201526a27b7363c9039b2b63632b960a91b6044820152606401610857565b60008381526006602052604090205482106124b55760405162461bcd60e51b8152602060048201526013602482015272092dcecc2d8d2c840decccccae440d2dcc8caf606b1b6044820152606401610857565b60008381526006602052604081208054849081106124d5576124d5613e31565b60009182526020909120600490910201600381015490915060ff1661252f5760405162461bcd60e51b815260206004820152601060248201526f4f66666572206e6f742061637469766560801b6044820152606401610857565b42816002015410156125735760405162461bcd60e51b815260206004820152600d60248201526c13d999995c88195e1c1a5c9959609a1b6044820152606401610857565b6001820154600283015483546040516331a9108f60e11b815260048101919091526001600160a01b0392831692909116908290636352211e90602401602060405180830381865afa1580156125cc573d6000803e3d6000fd5b505050506040513d601f19601f820116820180604052508101906125f09190613c8b565b6001600160a01b03161461263e5760405162461bcd60e51b815260206004820152601560248201527453656c6c6572206e6f206c6f6e676572206f776e7360581b6044820152606401610857565b600283015460405163e985e9c560e01b81526001600160a01b0391821660048201523060248201529082169063e985e9c590604401602060405180830381865afa158015612690573d6000803e3d6000fd5b505050506040513d601f19601f820116820180604052508101906126b49190613ca8565b806127385750825460405163020604bf60e21b815230916001600160a01b0384169163081812fc916126ec9160040190815260200190565b602060405180830381865afa158015612709573d6000803e3d6000fd5b505050506040513d601f19601f8201168201806040525081019061272d9190613c8b565b6001600160a01b0316145b6127545760405162461bcd60e51b815260040161085790613cca565b60048301805460ff199081169091556001808501546001600160a01b031660009081526003602081815260408084208954855290915282208290558501805490931690925560055490840154612710916127ad91613dbe565b6127b79190613dd5565b905060008184600101546127cb9190613df7565b600286015485548754604051632142170760e11b81529394506001600160a01b03808816946342842e0e9461280a949083169392169190600401613d30565b600060405180830381600087803b15801561282457600080fd5b505af1158015612838573d6000803e3d6000fd5b5050505060028501546040516000916001600160a01b03169083908381818185875af1925050503d806000811461288b576040519150601f19603f3d011682016040523d82523d6000602084013e612890565b606091505b50509050806128dc5760405162461bcd60e51b815260206004820152601860248201527714185e5b595b9d081d1bc81cd95b1b195c8819985a5b195960421b6044820152606401610857565b845460018601546040519081526001600160a01b039091169089907fea555ab99331ceac5051c58f17cc7b411b30241b0e28cb93a7d3a24c77a7a9a99060200160405180910390a3855460018088015460028901548854928901546040516001600160a01b03938416948e947ffbd14ef83c9e36d4cd05cdc496d3b3a07da3041679b4142908d0ef3cef210dc49461297c94908216939290911691613d30565b60405180910390a4505050505050610edb6001600055565b600082815260076020526040902060038101546001600160a01b03166129cc5760405162461bcd60e51b815260040161085790613d93565b80600501544210612a145760405162461bcd60e51b815260206004820152601260248201527110dbdb5b5a5d081c1a185cd948195b99195960721b6044820152606401610857565b600083815260096020908152604080832033845290915290205415612a6f5760405162461bcd60e51b8152602060048201526011602482015270105b1c9958591e4818dbdb5b5a5d1d1959607a1b6044820152606401610857565b600083815260096020908152604080832033808552908352818420869055868452600b835281842080546001810182559085529383902090930180546001600160a01b031916841790555184815285917f4331bb15029b0b2299c74d6be3bc5cdd8f49e4174ca7c4222eb178718e28b199910160405180910390a3505050565b600082815260026020908152604080832060018101546001600160a01b031684526003835281842081548552909252909120548314612b405760405162461bcd60e51b815260040161085790613d67565b60028101546001600160a01b03163314612b9c5760405162461bcd60e51b815260206004820152601c60248201527f4f6e6c792073656c6c65722063616e20757064617465207072696365000000006044820152606401610857565b60008211612bec5760405162461bcd60e51b815260206004820152601c60248201527f5072696365206d7573742062652067726561746572207468616e2030000000006044820152606401610857565b6003015550565b6060600060015b600854811015612c65576000818152600760208190526040909120015460ff16158015612c4057506000818152600760205260409020600301546001600160a01b031615155b15612c535781612c4f81613d17565b9250505b80612c5d81613d17565b915050612bfa565b5060008167ffffffffffffffff811115612c8157612c81613e47565b604051908082528060200260200182016040528015612d2557816020015b612d12604051806101400160405280600081526020016000815260200160006001600160a01b0316815260200160006001600160a01b0316815260200160008152602001600081526020016000815260200160001515815260200160006001600160a01b03168152602001600081525090565b815260200190600190039081612c9f5790505b509050600060015b6008548110156123c1576000818152600760208190526040909120015460ff16158015612d7357506000818152600760205260409020600301546001600160a01b031615155b15612e37576000818152600760208181526040928390208351610140810185528154815260018201549281019290925260028101546001600160a01b039081169483019490945260038101548416606083015260048101546080830152600581015460a0830152600681015460c08301529182015460ff8116151560e08301526101009081900490931692810192909252600801546101208201528383612e1981613d17565b945081518110612e2b57612e2b613e31565b60200260200101819052505b80612e4181613d17565b915050612d2d565b612e516137da565b6103e8811115612e9b5760405162461bcd60e51b81526020600482015260156024820152744665652063616e6e6f74206578636565642031302560581b6044820152606401610857565b600555565b612ea86137b0565b60008111612ef85760405162461bcd60e51b815260206004820152601c60248201527f5072696365206d7573742062652067726561746572207468616e2030000000006044820152606401610857565b6040516331a9108f60e11b81526004810183905233906001600160a01b03851690636352211e90602401602060405180830381865afa158015612f3f573d6000803e3d6000fd5b505050506040513d601f19601f82011682018060405250810190612f639190613c8b565b6001600160a01b031614612fb25760405162461bcd60e51b8152602060048201526016602482015275165bdd48191bdb89dd081bdddb881d1a1a5cc813919560521b6044820152606401610857565b60405163e985e9c560e01b81523360048201523060248201526001600160a01b0384169063e985e9c590604401602060405180830381865afa158015612ffc573d6000803e3d6000fd5b505050506040513d601f19601f820116820180604052508101906130209190613ca8565b8061309c575060405163020604bf60e21b81526004810183905230906001600160a01b0385169063081812fc90602401602060405180830381865afa15801561306d573d6000803e3d6000fd5b505050506040513d601f19601f820116820180604052508101906130919190613c8b565b6001600160a01b0316145b6130f95760405162461bcd60e51b815260206004820152602860248201527f4d61726b6574706c616365206e6f7420617070726f76656420746f207472616e6044820152671cd9995c8813919560c21b6064820152608401610857565b6001600160a01b03831660009081526003602090815260408083208584529091529020541561315f5760405162461bcd60e51b815260206004820152601260248201527113919508185b1c9958591e481b1a5cdd195960721b6044820152606401610857565b600480546000918261317083613d17565b909155506040805160a0810182528581526001600160a01b03878116602080840182815233858701818152606087018b815260016080890181815260008c815260028089528c82209b518c559651928b018054938b166001600160a01b03199485161790559351958a018054969099169590911694909417909655945160038088019190915591516004909601805496151560ff19909716969096179095558284528152848320898452815291849020859055835192835290820186905292935085929184917f18c93addaf4d0e5982a13cb88444441b90223974eaf9d6e898151cb4d96bf153910160405180910390a45061181f6001600055565b6001600160a01b03821660009081526003602090815260408083208484529091529020545b92915050565b61329f6137da565b604051632142170760e11b81526001600160a01b038416906342842e0e906132cf90309085908790600401613d30565b600060405180830381600087803b1580156132e957600080fd5b505af11580156132fd573d6000803e3d6000fd5b50505050505050565b61330e6137b0565b60008281526006602052604090205481106133615760405162461bcd60e51b8152602060048201526013602482015272092dcecc2d8d2c840decccccae440d2dcc8caf606b1b6044820152606401610857565b600082815260066020526040812080548390811061338157613381613e31565b60009182526020909120600490910201600381015490915060ff166133db5760405162461bcd60e51b815260206004820152601060248201526f4f66666572206e6f742061637469766560801b6044820152606401610857565b80546001600160a01b031633146134225760405162461bcd60e51b815260206004820152600b60248201526a2737ba1037b33332b932b960a91b6044820152606401610857565b60038101805460ff19169055600181015460405160009133918381818185875af1925050503d8060008114613473576040519150601f19603f3d011682016040523d82523d6000602084013e613478565b606091505b50509050806134995760405162461bcd60e51b815260040161085790613e0a565b336001600160a01b0316847fe2dc0bfd2fc658db980184c3f7c091c2f886874e896043b562d5099c8d95b1dd84600101546040516134d991815260200190565b60405180910390a35050610edb6001600055565b6060600060015b60045481101561357a576000818152600260208190526040909120908101546001600160a01b038681169116148015613554575060018101546001600160a01b031660009081526003602090815260408083208454845290915290205482145b15613567578261356381613d17565b9350505b508061357281613d17565b9150506134f4565b5060008167ffffffffffffffff81111561359657613596613e47565b6040519080825280602002602001820160405280156135cf57816020015b6135bc613859565b8152602001906001900390816135b45790505b509050600060015b6004548110156136c9576000818152600260208190526040909120908101546001600160a01b038881169116148015613637575060018101546001600160a01b031660009081526003602090815260408083208454845290915290205482145b156136b6576040805160c0810182528381528254602082015260018301546001600160a01b03908116928201929092526002830154909116606082015260038201546080820152600482015460ff16151560a0820152848461369881613d17565b9550815181106136aa576136aa613e31565b60200260200101819052505b50806136c181613d17565b9150506135d7565b5090949350505050565b606060066000838152602001908152602001600020805480602002602001604051908101604052809291908181526020016000905b8282101561376a576000848152602090819020604080516080810182526004860290920180546001600160a01b03168352600180820154848601526002820154928401929092526003015460ff16151560608301529083529092019101613708565b505050509050919050565b61377d6137da565b6001600160a01b0381166137a757604051631e4fbdf760e01b815260006004820152602401610857565b61143681613807565b6002600054036137d357604051633ee5aeb560e01b815260040160405180910390fd5b6002600055565b6001546001600160a01b031633146123dc5760405163118cdaa760e01b8152336004820152602401610857565b600180546001600160a01b038381166001600160a01b0319831681179093556040519116919082907f8be0079c531659141344cd1fd0a4f28419497f9722a3daafe3b4186f6b6457e090600090a35050565b6040518060c00160405280600081526020016000815260200160006001600160a01b0316815260200160006001600160a01b03168152602001600081526020016000151581525090565b6001600160a01b038116811461143657600080fd5b600080600080600060a086880312156138d057600080fd5b85356138db816138a3565b97602087013597506040870135966060810135965060800135945092505050565b6000806040838503121561390f57600080fd5b50508035926020909101359150565b60006020828403121561393057600080fd5b5035919050565b60008060008060006080868803121561394f57600080fd5b853561395a816138a3565b9450602086013561396a816138a3565b935060408601359250606086013567ffffffffffffffff8082111561398e57600080fd5b818801915088601f8301126139a257600080fd5b8135818111156139b157600080fd5b8960208285010111156139c357600080fd5b9699959850939650602001949392505050565b6000806000606084860312156139eb57600080fd5b505081359360208301359350604090920135919050565b60008060408385031215613a1557600080fd5b823591506020830135613a27816138a3565b809150509250929050565b60008060408385031215613a4557600080fd5b8235613a50816138a3565b946020939093013593505050565b602080825282518282018190526000919060409081850190868401855b82811015613ad9578151805185528681015187860152858101516001600160a01b0390811687870152606080830151909116908601526080808201519086015260a09081015115159085015260c09093019290850190600101613a7b565b5091979650505050505050565b602080825282518282018190526000919060409081850190868401855b82811015613ad9578151805185528681015187860152858101516001600160a01b03908116878701526060808301518216908701526080808301519087015260a0808301519087015260c0808301519087015260e080830151151590870152610100808301519091169086015261012090810151908501526101409093019290850190600101613b03565b600080600060608486031215613ba357600080fd5b8335613bae816138a3565b95602085013595506040909401359392505050565b600080600060608486031215613bd857600080fd5b8335613be3816138a3565b9250602084013591506040840135613bfa816138a3565b809150509250925092565b600060208284031215613c1757600080fd5b8135613c22816138a3565b9392505050565b602080825282518282018190526000919060409081850190868401855b82811015613ad957815180516001600160a01b031685528681015187860152858101518686015260609081015115159085015260809093019290850190600101613c46565b600060208284031215613c9d57600080fd5b8151613c22816138a3565b600060208284031215613cba57600080fd5b81518015158114613c2257600080fd5b60208082526018908201527f4d61726b6574706c616365206e6f7420617070726f7665640000000000000000604082015260600190565b634e487b7160e01b600052601160045260246000fd5b600060018201613d2957613d29613d01565b5060010190565b6001600160a01b039384168152919092166020820152604081019190915260600190565b8082018082111561329157613291613d01565b6020808252601290820152714c697374696e67206e6f742061637469766560701b604082015260600190565b602080825260119082015270105d58dd1a5bdb881b9bdd08199bdd5b99607a1b604082015260600190565b808202811582820484141761329157613291613d01565b600082613df257634e487b7160e01b600052601260045260246000fd5b500490565b8181038181111561329157613291613d01565b6020808252600d908201526c1499599d5b990819985a5b1959609a1b604082015260600190565b634e487b7160e01b600052603260045260246000fd5b634e487b7160e01b600052604160045260246000fdfea2646970667358221220b83f8f11b46f5d1589bd3539254c81afc2e88b57a466cc78aa7004b166a4c94a64736f6c63430008140033",
  "devdoc": {
    "errors": {
      "OwnableInvalidOwner(address)": [
        {
          "details": "The owner is not a valid owner account. (eg. `address(0)`)"
        }
      ],
      "OwnableUnauthorizedAccount(address)": [
        {
          "details": "The caller account is not authorized to perform an operation."
        }
      ],
      "ReentrancyGuardReentrantCall()": [
        {
          "details": "Unauthorized reentrant call."
        }
      ]
    },
    "kind": "dev",
    "methods": {
      "commitBlindBid(uint256,bytes32)": {
        "details": "Commit a bid using a hash of (amount, secret, bidder)."
      },
      "createBlindAuction(address,uint256,uint256,uint256,uint256)": {
        "details": "Create a blind auction for an NFT. NFT is escrowed into the marketplace until finalized."
      },
      "finalizeBlindAuction(uint256)": {
        "details": "Finalize the auction: transfer NFT and handle payouts & refunds."
      },
      "owner()": {
        "details": "Returns the address of the current owner."
      },
      "renounceOwnership()": {
        "details": "Leaves the contract without owner. It will not be possible to call `onlyOwner` functions. Can only be called by the current owner. NOTE: Renouncing ownership will leave the contract without an owner, thereby disabling any functionality that is only available to the owner."
      },
      "revealBlindBid(uint256,uint256,bytes32)": {
        "details": "Reveal a bid by providing amount and secret. ETH equal to amount is sent."
      },
      "transferOwnership(address)": {
        "details": "Transfers ownership of the contract to a new account (`newOwner`). Can only be called by the current owner."
      }
    },
    "version": 1
  },
  "userdoc": {
    "kind": "user",
    "methods": {},
    "version": 1
  },
  "storageLayout": {
    "storage": [
      {
        "astId": 323,
        "contract": "contracts/NFTMarketplace.sol:NFTMarketplace",
        "label": "_status",
        "offset": 0,
        "slot": "0",
        "type": "t_uint256"
      },
      {
        "astId": 8,
        "contract": "contracts/NFTMarketplace.sol:NFTMarketplace",
        "label": "_owner",
        "offset": 0,
        "slot": "1",
        "type": "t_address"
      },
      {
        "astId": 434,
        "contract": "contracts/NFTMarketplace.sol:NFTMarketplace",
        "label": "listings",
        "offset": 0,
        "slot": "2",
        "type": "t_mapping(t_uint256,t_struct(Listing)416_storage)"
      },
      {
        "astId": 440,
        "contract": "contracts/NFTMarketplace.sol:NFTMarketplace",
        "label": "tokenToListing",
        "offset": 0,
        "slot": "3",
        "type": "t_mapping(t_address,t_mapping(t_uint256,t_uint256))"
      },
      {
        "astId": 443,
        "contract": "contracts/NFTMarketplace.sol:NFTMarketplace",
        "label": "nextListingId",
        "offset": 0,
        "slot": "4",
        "type": "t_uint256"
      },
      {
        "astId": 446,
        "contract": "contracts/NFTMarketplace.sol:NFTMarketplace",
        "label": "marketplaceFee",
        "offset": 0,
        "slot": "5",
        "type": "t_uint256"
      },
      {
        "astId": 461,
        "contract": "contracts/NFTMarketplace.sol:NFTMarketplace",
        "label": "listingOffers",
        "offset": 0,
        "slot": "6",
        "type": "t_mapping(t_uint256,t_array(t_struct(Offer)455_storage)dyn_storage)"
      },
      {
        "astId": 1811,
        "contract": "contracts/NFTMarketplace.sol:NFTMarketplace",
        "label": "blindAuctions",
        "offset": 0,
        "slot": "7",
        "type": "t_mapping(t_uint256,t_struct(BlindAuction)1806_storage)"
      },
      {
        "astId": 1814,
        "contract": "contracts/NFTMarketplace.sol:NFTMarketplace",
        "label": "nextAuctionId",
        "offset": 0,
        "slot": "8",
        "type": "t_uint256"
      },
      {
        "astId": 1820,
        "contract": "contracts/NFTMarketplace.sol:NFTMarketplace",
        "label": "bidCommitments",
        "offset": 0,
        "slot": "9",
        "type": "t_mapping(t_uint256,t_mapping(t_address,t_bytes32))"
      },
      {
        "astId": 1826,
        "contract": "contracts/NFTMarketplace.sol:NFTMarketplace",
        "label": "revealedAmounts",
        "offset": 0,
        "slot": "10",
        "type": "t_mapping(t_uint256,t_mapping(t_address,t_uint256))"
      },
      {
        "astId": 1831,
        "contract": "contracts/NFTMarketplace.sol:NFTMarketplace",
        "label": "auctionBidders",
        "offset": 0,
        "slot": "11",
        "type": "t_mapping(t_uint256,t_array(t_address)dyn_storage)"
      }
    ],
    "types": {
      "t_address": {
        "encoding": "inplace",
        "label": "address",
        "numberOfBytes": "20"
      },
      "t_array(t_address)dyn_storage": {
        "base": "t_address",
        "encoding": "dynamic_array",
        "label": "address[]",
        "numberOfBytes": "32"
      },
      "t_array(t_struct(Offer)455_storage)dyn_storage": {
        "base": "t_struct(Offer)455_storage",
        "encoding": "dynamic_array",
        "label": "struct NFTMarketplace.Offer[]",
        "numberOfBytes": "32"
      },
      "t_bool": {
        "encoding": "inplace",
        "label": "bool",
        "numberOfBytes": "1"
      },
      "t_bytes32": {
        "encoding": "inplace",
        "label": "bytes32",
        "numberOfBytes": "32"
      },
      "t_mapping(t_address,t_bytes32)": {
        "encoding": "mapping",
        "key": "t_address",
        "label": "mapping(address => bytes32)",
        "numberOfBytes": "32",
        "value": "t_bytes32"
      },
      "t_mapping(t_address,t_mapping(t_uint256,t_uint256))": {
        "encoding": "mapping",
        "key": "t_address",
        "label": "mapping(address => mapping(uint256 => uint256))",
        "numberOfBytes": "32",
        "value": "t_mapping(t_uint256,t_uint256)"
      },
      "t_mapping(t_address,t_uint256)": {
        "encoding": "mapping",
        "key": "t_address",
        "label": "mapping(address => uint256)",
        "numberOfBytes": "32",
        "value": "t_uint256"
      },
      "t_mapping(t_uint256,t_array(t_address)dyn_storage)": {
        "encoding": "mapping",
        "key": "t_uint256",
        "label": "mapping(uint256 => address[])",
        "numberOfBytes": "32",
        "value": "t_array(t_address)dyn_storage"
      },
      "t_mapping(t_uint256,t_array(t_struct(Offer)455_storage)dyn_storage)": {
        "encoding": "mapping",
        "key": "t_uint256",
        "label": "mapping(uint256 => struct NFTMarketplace.Offer[])",
        "numberOfBytes": "32",
        "value": "t_array(t_struct(Offer)455_storage)dyn_storage"
      },
      "t_mapping(t_uint256,t_mapping(t_address,t_bytes32))": {
        "encoding": "mapping",
        "key": "t_uint256",
        "label": "mapping(uint256 => mapping(address => bytes32))",
        "numberOfBytes": "32",
        "value": "t_mapping(t_address,t_bytes32)"
      },
      "t_mapping(t_uint256,t_mapping(t_address,t_uint256))": {
        "encoding": "mapping",
        "key": "t_uint256",
        "label": "mapping(uint256 => mapping(address => uint256))",
        "numberOfBytes": "32",
        "value": "t_mapping(t_address,t_uint256)"
      },
      "t_mapping(t_uint256,t_struct(BlindAuction)1806_storage)": {
        "encoding": "mapping",
        "key": "t_uint256",
        "label": "mapping(uint256 => struct NFTMarketplace.BlindAuction)",
        "numberOfBytes": "32",
        "value": "t_struct(BlindAuction)1806_storage"
      },
      "t_mapping(t_uint256,t_struct(Listing)416_storage)": {
        "encoding": "mapping",
        "key": "t_uint256",
        "label": "mapping(uint256 => struct NFTMarketplace.Listing)",
        "numberOfBytes": "32",
        "value": "t_struct(Listing)416_storage"
      },
      "t_mapping(t_uint256,t_uint256)": {
        "encoding": "mapping",
        "key": "t_uint256",
        "label": "mapping(uint256 => uint256)",
        "numberOfBytes": "32",
        "value": "t_uint256"
      },
      "t_struct(BlindAuction)1806_storage": {
        "encoding": "inplace",
        "label": "struct NFTMarketplace.BlindAuction",
        "members": [
          {
            "astId": 1787,
            "contract": "contracts/NFTMarketplace.sol:NFTMarketplace",
            "label": "auctionId",
            "offset": 0,
            "slot": "0",
            "type": "t_uint256"
          },
          {
            "astId": 1789,
            "contract": "contracts/NFTMarketplace.sol:NFTMarketplace",
            "label": "tokenId",
            "offset": 0,
            "slot": "1",
            "type": "t_uint256"
          },
          {
            "astId": 1791,
            "contract": "contracts/NFTMarketplace.sol:NFTMarketplace",
            "label": "nftContract",
            "offset": 0,
            "slot": "2",
            "type": "t_address"
          },
          {
            "astId": 1793,
            "contract": "contracts/NFTMarketplace.sol:NFTMarketplace",
            "label": "seller",
            "offset": 0,
            "slot": "3",
            "type": "t_address"
          },
          {
            "astId": 1795,
            "contract": "contracts/NFTMarketplace.sol:NFTMarketplace",
            "label": "minBid",
            "offset": 0,
            "slot": "4",
            "type": "t_uint256"
          },
          {
            "astId": 1797,
            "contract": "contracts/NFTMarketplace.sol:NFTMarketplace",
            "label": "commitEnd",
            "offset": 0,
            "slot": "5",
            "type": "t_uint256"
          },
          {
            "astId": 1799,
            "contract": "contracts/NFTMarketplace.sol:NFTMarketplace",
            "label": "revealEnd",
            "offset": 0,
            "slot": "6",
            "type": "t_uint256"
          },
          {
            "astId": 1801,
            "contract": "contracts/NFTMarketplace.sol:NFTMarketplace",
            "label": "finalized",
            "offset": 0,
            "slot": "7",
            "type": "t_bool"
          },
          {
            "astId": 1803,
            "contract": "contracts/NFTMarketplace.sol:NFTMarketplace",
            "label": "highestBidder",
            "offset": 1,
            "slot": "7",
            "type": "t_address"
          },
          {
            "astId": 1805,
            "contract": "contracts/NFTMarketplace.sol:NFTMarketplace",
            "label": "highestBid",
            "offset": 0,
            "slot": "8",
            "type": "t_uint256"
          }
        ],
        "numberOfBytes": "288"
      },
      "t_struct(Listing)416_storage": {
        "encoding": "inplace",
        "label": "struct NFTMarketplace.Listing",
        "members": [
          {
            "astId": 407,
            "contract": "contracts/NFTMarketplace.sol:NFTMarketplace",
            "label": "tokenId",
            "offset": 0,
            "slot": "0",
            "type": "t_uint256"
          },
          {
            "astId": 409,
            "contract": "contracts/NFTMarketplace.sol:NFTMarketplace",
            "label": "nftContract",
            "offset": 0,
            "slot": "1",
            "type": "t_address"
          },
          {
            "astId": 411,
            "contract": "contracts/NFTMarketplace.sol:NFTMarketplace",
            "label": "seller",
            "offset": 0,
            "slot": "2",
            "type": "t_address"
          },
          {
            "astId": 413,
            "contract": "contracts/NFTMarketplace.sol:NFTMarketplace",
            "label": "price",
            "offset": 0,
            "slot": "3",
            "type": "t_uint256"
          },
          {
            "astId": 415,
            "contract": "contracts/NFTMarketplace.sol:NFTMarketplace",
            "label": "active",
            "offset": 0,
            "slot": "4",
            "type": "t_bool"
          }
        ],
        "numberOfBytes": "160"
      },
      "t_struct(Offer)455_storage": {
        "encoding": "inplace",
        "label": "struct NFTMarketplace.Offer",
        "members": [
          {
            "astId": 448,
            "contract": "contracts/NFTMarketplace.sol:NFTMarketplace",
            "label": "offerer",
            "offset": 0,
            "slot": "0",
            "type": "t_address"
          },
          {
            "astId": 450,
            "contract": "contracts/NFTMarketplace.sol:NFTMarketplace",
            "label": "amount",
            "offset": 0,
            "slot": "1",
            "type": "t_uint256"
          },
          {
            "astId": 452,
            "contract": "contracts/NFTMarketplace.sol:NFTMarketplace",
            "label": "expiration",
            "offset": 0,
            "slot": "2",
            "type": "t_uint256"
          },
          {
            "astId": 454,
            "contract": "contracts/NFTMarketplace.sol:NFTMarketplace",
            "label": "active",
            "offset": 0,
            "slot": "3",
            "type": "t_bool"
          }
        ],
        "numberOfBytes": "128"
      },
      "t_uint256": {
        "encoding": "inplace",
        "label": "uint256",
        "numberOfBytes": "32"
      }
    }
  }
}